{
  "_format": "hh-sol-artifact-1",
  "contractName": "Assessment",
  "sourceName": "contracts/Assessment.sol",
  "abi": [
    {
      "inputs": [],
      "stateMutability": "nonpayable",
      "type": "constructor"
    },
    {
      "anonymous": false,
      "inputs": [
        {
          "indexed": false,
          "internalType": "address",
          "name": "voter",
          "type": "address"
        },
        {
          "indexed": false,
          "internalType": "uint256",
          "name": "transactionId",
          "type": "uint256"
        }
      ],
      "name": "Transacted",
      "type": "event"
    },
    {
      "anonymous": false,
      "inputs": [
        {
          "indexed": false,
          "internalType": "uint256",
          "name": "transactionId",
          "type": "uint256"
        },
        {
          "indexed": false,
          "internalType": "string",
          "name": "candidateName",
          "type": "string"
        }
      ],
      "name": "TransactionRegistered",
      "type": "event"
    },
    {
      "inputs": [],
      "name": "candidatesCount",
      "outputs": [
        {
          "internalType": "uint256",
          "name": "",
          "type": "uint256"
        }
      ],
      "stateMutability": "view",
      "type": "function"
    },
    {
      "inputs": [],
      "name": "getTotalTransaction",
      "outputs": [
        {
          "internalType": "uint256",
          "name": "",
          "type": "uint256"
        }
      ],
      "stateMutability": "view",
      "type": "function"
    },
    {
      "inputs": [
        {
          "internalType": "uint256",
          "name": "_transactionId",
          "type": "uint256"
        }
      ],
      "name": "getTransaction",
      "outputs": [
        {
          "internalType": "uint256",
          "name": "",
          "type": "uint256"
        }
      ],
      "stateMutability": "view",
      "type": "function"
    },
    {
      "inputs": [],
      "name": "owner",
      "outputs": [
        {
          "internalType": "address",
          "name": "",
          "type": "address"
        }
      ],
      "stateMutability": "view",
      "type": "function"
    },
    {
      "inputs": [
        {
          "internalType": "string",
          "name": "_name",
          "type": "string"
        }
      ],
      "name": "registerTransaction",
      "outputs": [],
      "stateMutability": "nonpayable",
      "type": "function"
    },
    {
      "inputs": [],
      "name": "totalTransaction",
      "outputs": [
        {
          "internalType": "uint256",
          "name": "",
          "type": "uint256"
        }
      ],
      "stateMutability": "view",
      "type": "function"
    },
    {
      "inputs": [
        {
          "internalType": "uint256",
          "name": "",
          "type": "uint256"
        }
      ],
      "name": "transactions",
      "outputs": [
        {
          "internalType": "string",
          "name": "name",
          "type": "string"
        },
        {
          "internalType": "uint256",
          "name": "transactionCount",
          "type": "uint256"
        }
      ],
      "stateMutability": "view",
      "type": "function"
    },
    {
      "inputs": [
        {
          "internalType": "address",
          "name": "",
          "type": "address"
        }
      ],
      "name": "transacts",
      "outputs": [
        {
          "internalType": "bool",
          "name": "",
          "type": "bool"
        }
      ],
      "stateMutability": "view",
      "type": "function"
    },
    {
      "inputs": [
        {
          "internalType": "uint256",
          "name": "_transactionId",
          "type": "uint256"
        }
      ],
      "name": "vote",
      "outputs": [],
      "stateMutability": "nonpayable",
      "type": "function"
    }
  ],
  "bytecode": "0x60806040523480156200001157600080fd5b5033600460006101000a81548173ffffffffffffffffffffffffffffffffffffffff021916908373ffffffffffffffffffffffffffffffffffffffff160217905550620000636200006960201b60201c565b6200077c565b620000af6040518060400160405280600781526020017f4361736820696e00000000000000000000000000000000000000000000000000815250620000f760201b60201c565b620000f56040518060400160405280600881526020017f5769746864726177000000000000000000000000000000000000000000000000815250620000f760201b60201c565b565b600460009054906101000a900473ffffffffffffffffffffffffffffffffffffffff1673ffffffffffffffffffffffffffffffffffffffff163373ffffffffffffffffffffffffffffffffffffffff16146200018a576040517f08c379a00000000000000000000000000000000000000000000000000000000081526004016200018190620002ba565b60405180910390fd5b600260008154809291906200019f9062000315565b91905055506040518060400160405280828152602001600081525060008060025481526020019081526020016000206000820151816000019081620001e59190620005d2565b50602082015181600101559050507f448990221740215ed4d2ff1340a09ee99d1b40f23572f50a5e9584519f984d10600254826040516200022892919062000748565b60405180910390a150565b600082825260208201905092915050565b7f4f6e6c7920746865206f776e65722063616e207265676973746572207472616e60008201527f73616374696f6e2e000000000000000000000000000000000000000000000000602082015250565b6000620002a260288362000233565b9150620002af8262000244565b604082019050919050565b60006020820190508181036000830152620002d58162000293565b9050919050565b7f4e487b7100000000000000000000000000000000000000000000000000000000600052601160045260246000fd5b6000819050919050565b600062000322826200030b565b91507fffffffffffffffffffffffffffffffffffffffffffffffffffffffffffffffff8203620003575762000356620002dc565b5b600182019050919050565b600081519050919050565b7f4e487b7100000000000000000000000000000000000000000000000000000000600052604160045260246000fd5b7f4e487b7100000000000000000000000000000000000000000000000000000000600052602260045260246000fd5b60006002820490506001821680620003e457607f821691505b602082108103620003fa57620003f96200039c565b5b50919050565b60008190508160005260206000209050919050565b60006020601f8301049050919050565b600082821b905092915050565b600060088302620004647fffffffffffffffffffffffffffffffffffffffffffffffffffffffffffffffff8262000425565b62000470868362000425565b95508019841693508086168417925050509392505050565b6000819050919050565b6000620004b3620004ad620004a7846200030b565b62000488565b6200030b565b9050919050565b6000819050919050565b620004cf8362000492565b620004e7620004de82620004ba565b84845462000432565b825550505050565b600090565b620004fe620004ef565b6200050b818484620004c4565b505050565b5b81811015620005335762000527600082620004f4565b60018101905062000511565b5050565b601f82111562000582576200054c8162000400565b620005578462000415565b8101602085101562000567578190505b6200057f620005768562000415565b83018262000510565b50505b505050565b600082821c905092915050565b6000620005a76000198460080262000587565b1980831691505092915050565b6000620005c2838362000594565b9150826002028217905092915050565b620005dd8262000362565b67ffffffffffffffff811115620005f957620005f86200036d565b5b620006058254620003cb565b6200061282828562000537565b600060209050601f8311600181146200064a576000841562000635578287015190505b620006418582620005b4565b865550620006b1565b601f1984166200065a8662000400565b60005b8281101562000684578489015182556001820191506020850194506020810190506200065d565b86831015620006a45784890151620006a0601f89168262000594565b8355505b6001600288020188555050505b505050505050565b620006c4816200030b565b82525050565b60005b83811015620006ea578082015181840152602081019050620006cd565b60008484015250505050565b6000601f19601f8301169050919050565b6000620007148262000362565b62000720818562000233565b935062000732818560208601620006ca565b6200073d81620006f6565b840191505092915050565b60006040820190506200075f6000830185620006b9565b818103602083015262000773818462000707565b90509392505050565b610dff806200078c6000396000f3fe608060405234801561001057600080fd5b50600436106100935760003560e01c80638da5cb5b116100665780638da5cb5b146101205780639ace38c21461013e578063a5f707221461016f578063d5a84e091461018d578063f294dcae146101a957610093565b80630121b93f146100985780630147d79c146100b45780632d35a8a2146100d257806333ea3dc8146100f0575b600080fd5b6100b260048036038101906100ad919061059d565b6101d9565b005b6100bc6102a9565b6040516100c991906105d9565b60405180910390f35b6100da6102af565b6040516100e791906105d9565b60405180910390f35b61010a6004803603810190610105919061059d565b6102b5565b60405161011791906105d9565b60405180910390f35b610128610324565b6040516101359190610635565b60405180910390f35b6101586004803603810190610153919061059d565b61034a565b6040516101669291906106e0565b60405180910390f35b6101776103f6565b60405161018491906105d9565b60405180910390f35b6101a760048036038101906101a29190610845565b610400565b005b6101c360048036038101906101be91906108ba565b610533565b6040516101d09190610902565b60405180910390f35b6000811180156101eb57506002548111155b61022a576040517f08c379a000000000000000000000000000000000000000000000000000000000815260040161022190610969565b60405180910390fd5b6000808281526020019081526020016000206001016000815480929190610250906109b8565b919050555060036000815480929190610268906109b8565b91905055507fe6d880b3b3bcf5014468c63577d84bae8261eb93b72f10cdf1c323fa80cdcbe3338260405161029e929190610a00565b60405180910390a150565b60035481565b60025481565b600080821180156102c857506002548211155b610307576040517f08c379a00000000000000000000000000000000000000000000000000000000081526004016102fe90610969565b60405180910390fd5b600080838152602001908152602001600020600101549050919050565b600460009054906101000a900473ffffffffffffffffffffffffffffffffffffffff1681565b600060205280600052604060002060009150905080600001805461036d90610a58565b80601f016020809104026020016040519081016040528092919081815260200182805461039990610a58565b80156103e65780601f106103bb576101008083540402835291602001916103e6565b820191906000526020600020905b8154815290600101906020018083116103c957829003601f168201915b5050505050908060010154905082565b6000600354905090565b600460009054906101000a900473ffffffffffffffffffffffffffffffffffffffff1673ffffffffffffffffffffffffffffffffffffffff163373ffffffffffffffffffffffffffffffffffffffff1614610490576040517f08c379a000000000000000000000000000000000000000000000000000000000815260040161048790610afb565b60405180910390fd5b600260008154809291906104a3906109b8565b919050555060405180604001604052808281526020016000815250600080600254815260200190815260200160002060008201518160000190816104e79190610cc7565b50602082015181600101559050507f448990221740215ed4d2ff1340a09ee99d1b40f23572f50a5e9584519f984d1060025482604051610528929190610d99565b60405180910390a150565b60016020528060005260406000206000915054906101000a900460ff1681565b6000604051905090565b600080fd5b600080fd5b6000819050919050565b61057a81610567565b811461058557600080fd5b50565b60008135905061059781610571565b92915050565b6000602082840312156105b3576105b261055d565b5b60006105c184828501610588565b91505092915050565b6105d381610567565b82525050565b60006020820190506105ee60008301846105ca565b92915050565b600073ffffffffffffffffffffffffffffffffffffffff82169050919050565b600061061f826105f4565b9050919050565b61062f81610614565b82525050565b600060208201905061064a6000830184610626565b92915050565b600081519050919050565b600082825260208201905092915050565b60005b8381101561068a57808201518184015260208101905061066f565b60008484015250505050565b6000601f19601f8301169050919050565b60006106b282610650565b6106bc818561065b565b93506106cc81856020860161066c565b6106d581610696565b840191505092915050565b600060408201905081810360008301526106fa81856106a7565b905061070960208301846105ca565b9392505050565b600080fd5b600080fd5b7f4e487b7100000000000000000000000000000000000000000000000000000000600052604160045260246000fd5b61075282610696565b810181811067ffffffffffffffff821117156107715761077061071a565b5b80604052505050565b6000610784610553565b90506107908282610749565b919050565b600067ffffffffffffffff8211156107b0576107af61071a565b5b6107b982610696565b9050602081019050919050565b82818337600083830152505050565b60006107e86107e384610795565b61077a565b90508281526020810184848401111561080457610803610715565b5b61080f8482856107c6565b509392505050565b600082601f83011261082c5761082b610710565b5b813561083c8482602086016107d5565b91505092915050565b60006020828403121561085b5761085a61055d565b5b600082013567ffffffffffffffff81111561087957610878610562565b5b61088584828501610817565b91505092915050565b61089781610614565b81146108a257600080fd5b50565b6000813590506108b48161088e565b92915050565b6000602082840312156108d0576108cf61055d565b5b60006108de848285016108a5565b91505092915050565b60008115159050919050565b6108fc816108e7565b82525050565b600060208201905061091760008301846108f3565b92915050565b7f496e76616c6964207472616e73616374696f6e2049442e000000000000000000600082015250565b600061095360178361065b565b915061095e8261091d565b602082019050919050565b6000602082019050818103600083015261098281610946565b9050919050565b7f4e487b7100000000000000000000000000000000000000000000000000000000600052601160045260246000fd5b60006109c382610567565b91507fffffffffffffffffffffffffffffffffffffffffffffffffffffffffffffffff82036109f5576109f4610989565b5b600182019050919050565b6000604082019050610a156000830185610626565b610a2260208301846105ca565b9392505050565b7f4e487b7100000000000000000000000000000000000000000000000000000000600052602260045260246000fd5b60006002820490506001821680610a7057607f821691505b602082108103610a8357610a82610a29565b5b50919050565b7f4f6e6c7920746865206f776e65722063616e207265676973746572207472616e60008201527f73616374696f6e2e000000000000000000000000000000000000000000000000602082015250565b6000610ae560288361065b565b9150610af082610a89565b604082019050919050565b60006020820190508181036000830152610b1481610ad8565b9050919050565b60008190508160005260206000209050919050565b60006020601f8301049050919050565b600082821b905092915050565b600060088302610b7d7fffffffffffffffffffffffffffffffffffffffffffffffffffffffffffffffff82610b40565b610b878683610b40565b95508019841693508086168417925050509392505050565b6000819050919050565b6000610bc4610bbf610bba84610567565b610b9f565b610567565b9050919050565b6000819050919050565b610bde83610ba9565b610bf2610bea82610bcb565b848454610b4d565b825550505050565b600090565b610c07610bfa565b610c12818484610bd5565b505050565b5b81811015610c3657610c2b600082610bff565b600181019050610c18565b5050565b601f821115610c7b57610c4c81610b1b565b610c5584610b30565b81016020851015610c64578190505b610c78610c7085610b30565b830182610c17565b50505b505050565b600082821c905092915050565b6000610c9e60001984600802610c80565b1980831691505092915050565b6000610cb78383610c8d565b9150826002028217905092915050565b610cd082610650565b67ffffffffffffffff811115610ce957610ce861071a565b5b610cf38254610a58565b610cfe828285610c3a565b600060209050601f831160018114610d315760008415610d1f578287015190505b610d298582610cab565b865550610d91565b601f198416610d3f86610b1b565b60005b82811015610d6757848901518255600182019150602085019450602081019050610d42565b86831015610d845784890151610d80601f891682610c8d565b8355505b6001600288020188555050505b505050505050565b6000604082019050610dae60008301856105ca565b8181036020830152610dc081846106a7565b9050939250505056fea2646970667358221220fc4ea8adaf3bedea5ca041cc254e175058be9b3e21e3dba8a34caab0d9095adc64736f6c63430008110033",
  "linkReferences": {},
  "deployedLinkReferences": {}
}